{
  "_format": "hh-sol-artifact-1",
  "contractName": "PepeY00tsYC",
  "sourceName": "contracts/PepeY00tsYC.sol",
  "abi": [
    {
      "inputs": [
        {
          "internalType": "string",
          "name": "_initBaseURI",
          "type": "string"
        }
      ],
      "stateMutability": "nonpayable",
      "type": "constructor"
    },
    {
      "inputs": [],
      "name": "ApprovalCallerNotOwnerNorApproved",
      "type": "error"
    },
    {
      "inputs": [],
      "name": "ApprovalQueryForNonexistentToken",
      "type": "error"
    },
    {
      "inputs": [],
      "name": "BalanceQueryForZeroAddress",
      "type": "error"
    },
    {
      "inputs": [],
      "name": "MintERC2309QuantityExceedsLimit",
      "type": "error"
    },
    {
      "inputs": [],
      "name": "MintToZeroAddress",
      "type": "error"
    },
    {
      "inputs": [],
      "name": "MintZeroQuantity",
      "type": "error"
    },
    {
      "inputs": [],
      "name": "OwnerQueryForNonexistentToken",
      "type": "error"
    },
    {
      "inputs": [],
      "name": "OwnershipNotInitializedForExtraData",
      "type": "error"
    },
    {
      "inputs": [],
      "name": "TransferCallerNotOwnerNorApproved",
      "type": "error"
    },
    {
      "inputs": [],
      "name": "TransferFromIncorrectOwner",
      "type": "error"
    },
    {
      "inputs": [],
      "name": "TransferToNonERC721ReceiverImplementer",
      "type": "error"
    },
    {
      "inputs": [],
      "name": "TransferToZeroAddress",
      "type": "error"
    },
    {
      "inputs": [],
      "name": "URIQueryForNonexistentToken",
      "type": "error"
    },
    {
      "anonymous": false,
      "inputs": [
        {
          "indexed": true,
          "internalType": "address",
          "name": "owner",
          "type": "address"
        },
        {
          "indexed": true,
          "internalType": "address",
          "name": "approved",
          "type": "address"
        },
        {
          "indexed": true,
          "internalType": "uint256",
          "name": "tokenId",
          "type": "uint256"
        }
      ],
      "name": "Approval",
      "type": "event"
    },
    {
      "anonymous": false,
      "inputs": [
        {
          "indexed": true,
          "internalType": "address",
          "name": "owner",
          "type": "address"
        },
        {
          "indexed": true,
          "internalType": "address",
          "name": "operator",
          "type": "address"
        },
        {
          "indexed": false,
          "internalType": "bool",
          "name": "approved",
          "type": "bool"
        }
      ],
      "name": "ApprovalForAll",
      "type": "event"
    },
    {
      "anonymous": false,
      "inputs": [
        {
          "indexed": true,
          "internalType": "uint256",
          "name": "fromTokenId",
          "type": "uint256"
        },
        {
          "indexed": false,
          "internalType": "uint256",
          "name": "toTokenId",
          "type": "uint256"
        },
        {
          "indexed": true,
          "internalType": "address",
          "name": "from",
          "type": "address"
        },
        {
          "indexed": true,
          "internalType": "address",
          "name": "to",
          "type": "address"
        }
      ],
      "name": "ConsecutiveTransfer",
      "type": "event"
    },
    {
      "anonymous": false,
      "inputs": [
        {
          "indexed": true,
          "internalType": "address",
          "name": "previousOwner",
          "type": "address"
        },
        {
          "indexed": true,
          "internalType": "address",
          "name": "newOwner",
          "type": "address"
        }
      ],
      "name": "OwnershipTransferred",
      "type": "event"
    },
    {
      "anonymous": false,
      "inputs": [
        {
          "indexed": true,
          "internalType": "address",
          "name": "from",
          "type": "address"
        },
        {
          "indexed": true,
          "internalType": "address",
          "name": "to",
          "type": "address"
        },
        {
          "indexed": true,
          "internalType": "uint256",
          "name": "tokenId",
          "type": "uint256"
        }
      ],
      "name": "Transfer",
      "type": "event"
    },
    {
      "inputs": [],
      "name": "MaxperWallet",
      "outputs": [
        {
          "internalType": "uint256",
          "name": "",
          "type": "uint256"
        }
      ],
      "stateMutability": "view",
      "type": "function"
    },
    {
      "inputs": [],
      "name": "MaxperWalletTM",
      "outputs": [
        {
          "internalType": "uint256",
          "name": "",
          "type": "uint256"
        }
      ],
      "stateMutability": "view",
      "type": "function"
    },
    {
      "inputs": [
        {
          "internalType": "uint256",
          "name": "tokens",
          "type": "uint256"
        },
        {
          "internalType": "bytes32[]",
          "name": "merkleProof",
          "type": "bytes32[]"
        }
      ],
      "name": "TeamMint",
      "outputs": [],
      "stateMutability": "payable",
      "type": "function"
    },
    {
      "inputs": [
        {
          "internalType": "address",
          "name": "to",
          "type": "address"
        },
        {
          "internalType": "uint256",
          "name": "tokenId",
          "type": "uint256"
        }
      ],
      "name": "approve",
      "outputs": [],
      "stateMutability": "payable",
      "type": "function"
    },
    {
      "inputs": [
        {
          "internalType": "address",
          "name": "owner",
          "type": "address"
        }
      ],
      "name": "balanceOf",
      "outputs": [
        {
          "internalType": "uint256",
          "name": "",
          "type": "uint256"
        }
      ],
      "stateMutability": "view",
      "type": "function"
    },
    {
      "inputs": [],
      "name": "baseExtension",
      "outputs": [
        {
          "internalType": "string",
          "name": "",
          "type": "string"
        }
      ],
      "stateMutability": "view",
      "type": "function"
    },
    {
      "inputs": [],
      "name": "baseURI",
      "outputs": [
        {
          "internalType": "string",
          "name": "",
          "type": "string"
        }
      ],
      "stateMutability": "view",
      "type": "function"
    },
    {
      "inputs": [],
      "name": "cost",
      "outputs": [
        {
          "internalType": "uint256",
          "name": "",
          "type": "uint256"
        }
      ],
      "stateMutability": "view",
      "type": "function"
    },
    {
      "inputs": [
        {
          "internalType": "uint256",
          "name": "tokenId",
          "type": "uint256"
        }
      ],
      "name": "getApproved",
      "outputs": [
        {
          "internalType": "address",
          "name": "",
          "type": "address"
        }
      ],
      "stateMutability": "view",
      "type": "function"
    },
    {
      "inputs": [
        {
          "internalType": "uint256",
          "name": "_mintAmount",
          "type": "uint256"
        },
        {
          "internalType": "address",
          "name": "destination",
          "type": "address"
        }
      ],
      "name": "gift",
      "outputs": [],
      "stateMutability": "nonpayable",
      "type": "function"
    },
    {
      "inputs": [
        {
          "internalType": "address",
          "name": "owner",
          "type": "address"
        },
        {
          "internalType": "address",
          "name": "operator",
          "type": "address"
        }
      ],
      "name": "isApprovedForAll",
      "outputs": [
        {
          "internalType": "bool",
          "name": "",
          "type": "bool"
        }
      ],
      "stateMutability": "view",
      "type": "function"
    },
    {
      "inputs": [],
      "name": "maxSupply",
      "outputs": [
        {
          "internalType": "uint256",
          "name": "",
          "type": "uint256"
        }
      ],
      "stateMutability": "view",
      "type": "function"
    },
    {
      "inputs": [],
      "name": "merkleRoot",
      "outputs": [
        {
          "internalType": "bytes32",
          "name": "",
          "type": "bytes32"
        }
      ],
      "stateMutability": "view",
      "type": "function"
    },
    {
      "inputs": [],
      "name": "name",
      "outputs": [
        {
          "internalType": "string",
          "name": "",
          "type": "string"
        }
      ],
      "stateMutability": "view",
      "type": "function"
    },
    {
      "inputs": [],
      "name": "notRevealedUri",
      "outputs": [
        {
          "internalType": "string",
          "name": "",
          "type": "string"
        }
      ],
      "stateMutability": "view",
      "type": "function"
    },
    {
      "inputs": [
        {
          "internalType": "address",
          "name": "owner",
          "type": "address"
        }
      ],
      "name": "numberMinted",
      "outputs": [
        {
          "internalType": "uint256",
          "name": "",
          "type": "uint256"
        }
      ],
      "stateMutability": "view",
      "type": "function"
    },
    {
      "inputs": [],
      "name": "owner",
      "outputs": [
        {
          "internalType": "address",
          "name": "",
          "type": "address"
        }
      ],
      "stateMutability": "view",
      "type": "function"
    },
    {
      "inputs": [
        {
          "internalType": "uint256",
          "name": "tokenId",
          "type": "uint256"
        }
      ],
      "name": "ownerOf",
      "outputs": [
        {
          "internalType": "address",
          "name": "",
          "type": "address"
        }
      ],
      "stateMutability": "view",
      "type": "function"
    },
    {
      "inputs": [
        {
          "internalType": "bool",
          "name": "_state",
          "type": "bool"
        }
      ],
      "name": "pause",
      "outputs": [],
      "stateMutability": "nonpayable",
      "type": "function"
    },
    {
      "inputs": [],
      "name": "paused",
      "outputs": [
        {
          "internalType": "bool",
          "name": "",
          "type": "bool"
        }
      ],
      "stateMutability": "view",
      "type": "function"
    },
    {
      "inputs": [],
      "name": "publicSale",
      "outputs": [
        {
          "internalType": "bool",
          "name": "",
          "type": "bool"
        }
      ],
      "stateMutability": "view",
      "type": "function"
    },
    {
      "inputs": [
        {
          "internalType": "uint256",
          "name": "tokens",
          "type": "uint256"
        }
      ],
      "name": "publicSaleMint",
      "outputs": [],
      "stateMutability": "payable",
      "type": "function"
    },
    {
      "inputs": [],
      "name": "renounceOwnership",
      "outputs": [],
      "stateMutability": "nonpayable",
      "type": "function"
    },
    {
      "inputs": [
        {
          "internalType": "bool",
          "name": "_state",
          "type": "bool"
        }
      ],
      "name": "reveal",
      "outputs": [],
      "stateMutability": "nonpayable",
      "type": "function"
    },
    {
      "inputs": [],
      "name": "revealed",
      "outputs": [
        {
          "internalType": "bool",
          "name": "",
          "type": "bool"
        }
      ],
      "stateMutability": "view",
      "type": "function"
    },
    {
      "inputs": [
        {
          "internalType": "address",
          "name": "from",
          "type": "address"
        },
        {
          "internalType": "address",
          "name": "to",
          "type": "address"
        },
        {
          "internalType": "uint256",
          "name": "tokenId",
          "type": "uint256"
        }
      ],
      "name": "safeTransferFrom",
      "outputs": [],
      "stateMutability": "payable",
      "type": "function"
    },
    {
      "inputs": [
        {
          "internalType": "address",
          "name": "from",
          "type": "address"
        },
        {
          "internalType": "address",
          "name": "to",
          "type": "address"
        },
        {
          "internalType": "uint256",
          "name": "tokenId",
          "type": "uint256"
        },
        {
          "internalType": "bytes",
          "name": "_data",
          "type": "bytes"
        }
      ],
      "name": "safeTransferFrom",
      "outputs": [],
      "stateMutability": "payable",
      "type": "function"
    },
    {
      "inputs": [
        {
          "internalType": "address",
          "name": "operator",
          "type": "address"
        },
        {
          "internalType": "bool",
          "name": "approved",
          "type": "bool"
        }
      ],
      "name": "setApprovalForAll",
      "outputs": [],
      "stateMutability": "nonpayable",
      "type": "function"
    },
    {
      "inputs": [
        {
          "internalType": "string",
          "name": "_newBaseExtension",
          "type": "string"
        }
      ],
      "name": "setBaseExtension",
      "outputs": [],
      "stateMutability": "nonpayable",
      "type": "function"
    },
    {
      "inputs": [
        {
          "internalType": "string",
          "name": "_newBaseURI",
          "type": "string"
        }
      ],
      "name": "setBaseURI",
      "outputs": [],
      "stateMutability": "nonpayable",
      "type": "function"
    },
    {
      "inputs": [
        {
          "internalType": "uint256",
          "name": "_newCost",
          "type": "uint256"
        }
      ],
      "name": "setCost",
      "outputs": [],
      "stateMutability": "nonpayable",
      "type": "function"
    },
    {
      "inputs": [
        {
          "internalType": "uint256",
          "name": "_limit",
          "type": "uint256"
        }
      ],
      "name": "setMaxPerWallet",
      "outputs": [],
      "stateMutability": "nonpayable",
      "type": "function"
    },
    {
      "inputs": [
        {
          "internalType": "uint256",
          "name": "_limit",
          "type": "uint256"
        }
      ],
      "name": "setMaxperWalletTM",
      "outputs": [],
      "stateMutability": "nonpayable",
      "type": "function"
    },
    {
      "inputs": [
        {
          "internalType": "uint256",
          "name": "_newsupply",
          "type": "uint256"
        }
      ],
      "name": "setMaxsupply",
      "outputs": [],
      "stateMutability": "nonpayable",
      "type": "function"
    },
    {
      "inputs": [
        {
          "internalType": "bytes32",
          "name": "_merkleRoot",
          "type": "bytes32"
        }
      ],
      "name": "setMerkleRoot",
      "outputs": [],
      "stateMutability": "nonpayable",
      "type": "function"
    },
    {
      "inputs": [
        {
          "internalType": "string",
          "name": "_notRevealedURI",
          "type": "string"
        }
      ],
      "name": "setNotRevealedURI",
      "outputs": [],
      "stateMutability": "nonpayable",
      "type": "function"
    },
    {
      "inputs": [
        {
          "internalType": "bytes4",
          "name": "interfaceId",
          "type": "bytes4"
        }
      ],
      "name": "supportsInterface",
      "outputs": [
        {
          "internalType": "bool",
          "name": "",
          "type": "bool"
        }
      ],
      "stateMutability": "view",
      "type": "function"
    },
    {
      "inputs": [],
      "name": "symbol",
      "outputs": [
        {
          "internalType": "string",
          "name": "",
          "type": "string"
        }
      ],
      "stateMutability": "view",
      "type": "function"
    },
    {
      "inputs": [],
      "name": "teamMint",
      "outputs": [
        {
          "internalType": "bool",
          "name": "",
          "type": "bool"
        }
      ],
      "stateMutability": "view",
      "type": "function"
    },
    {
      "inputs": [],
      "name": "tmCost",
      "outputs": [
        {
          "internalType": "uint256",
          "name": "",
          "type": "uint256"
        }
      ],
      "stateMutability": "view",
      "type": "function"
    },
    {
      "inputs": [
        {
          "internalType": "bool",
          "name": "_state",
          "type": "bool"
        }
      ],
      "name": "togglepublicSale",
      "outputs": [],
      "stateMutability": "nonpayable",
      "type": "function"
    },
    {
      "inputs": [
        {
          "internalType": "bool",
          "name": "_state",
          "type": "bool"
        }
      ],
      "name": "toggleteamMint",
      "outputs": [],
      "stateMutability": "nonpayable",
      "type": "function"
    },
    {
      "inputs": [
        {
          "internalType": "uint256",
          "name": "tokenId",
          "type": "uint256"
        }
      ],
      "name": "tokenURI",
      "outputs": [
        {
          "internalType": "string",
          "name": "",
          "type": "string"
        }
      ],
      "stateMutability": "view",
      "type": "function"
    },
    {
      "inputs": [],
      "name": "totalSupply",
      "outputs": [
        {
          "internalType": "uint256",
          "name": "",
          "type": "uint256"
        }
      ],
      "stateMutability": "view",
      "type": "function"
    },
    {
      "inputs": [
        {
          "internalType": "address",
          "name": "from",
          "type": "address"
        },
        {
          "internalType": "address",
          "name": "to",
          "type": "address"
        },
        {
          "internalType": "uint256",
          "name": "tokenId",
          "type": "uint256"
        }
      ],
      "name": "transferFrom",
      "outputs": [],
      "stateMutability": "payable",
      "type": "function"
    },
    {
      "inputs": [
        {
          "internalType": "address",
          "name": "newOwner",
          "type": "address"
        }
      ],
      "name": "transferOwnership",
      "outputs": [],
      "stateMutability": "nonpayable",
      "type": "function"
    },
    {
      "inputs": [],
      "name": "withdraw",
      "outputs": [],
      "stateMutability": "payable",
      "type": "function"
    }
  ],
  "bytecode": "0x60c06040526005608081905264173539b7b760d91b60a09081526200002891600b9190620001f8565b50661ff973cafa8000600d556000600e819055612710600f55600360105560c86011556012805463ffffffff191663010001001790556013553480156200006e57600080fd5b5060405162002806380380620028068339810160408190526200009191620002b4565b604080518082018252600d81526c5065706520593030747320594360981b6020808301918252835180850190945260048452635059594360e01b908401528151919291620000e291600291620001f8565b508051620000f8906003906020840190620001f8565b50506001600055506200010b3362000122565b60016009556200011b8162000174565b50620003cd565b600880546001600160a01b038381166001600160a01b0319831681179093556040519116919082907f8be0079c531659141344cd1fd0a4f28419497f9722a3daafe3b4186f6b6457e090600090a35050565b6200017e62000197565b80516200019390600a906020840190620001f8565b5050565b6008546001600160a01b03163314620001f65760405162461bcd60e51b815260206004820181905260248201527f4f776e61626c653a2063616c6c6572206973206e6f7420746865206f776e6572604482015260640160405180910390fd5b565b828054620002069062000390565b90600052602060002090601f0160209004810192826200022a576000855562000275565b82601f106200024557805160ff191683800117855562000275565b8280016001018555821562000275579182015b828111156200027557825182559160200191906001019062000258565b506200028392915062000287565b5090565b5b8082111562000283576000815560010162000288565b634e487b7160e01b600052604160045260246000fd5b60006020808385031215620002c857600080fd5b82516001600160401b0380821115620002e057600080fd5b818501915085601f830112620002f557600080fd5b8151818111156200030a576200030a6200029e565b604051601f8201601f19908116603f011681019083821181831017156200033557620003356200029e565b8160405282815288868487010111156200034e57600080fd5b600093505b8284101562000372578484018601518185018701529285019262000353565b82841115620003845760008684830101525b98975050505050505050565b600181811c90821680620003a557607f821691505b60208210811415620003c757634e487b7160e01b600052602260045260246000fd5b50919050565b61242980620003dd6000396000f3fe6080604052600436106102885760003560e01c806370a082311161015a578063bd7a1998116100c1578063e268e4d31161007a578063e268e4d314610709578063e985e9c514610729578063f2c4ce1e14610772578063f2fde38b14610792578063f3257cdd146107b2578063f942cb9c146107d257600080fd5b8063bd7a199814610668578063c66828621461067e578063c87b56dd14610693578063d5abeb01146106b3578063da3ef23f146106c9578063dc33e681146106e957600080fd5b806395d89b411161011357806395d89b41146105da578063a22cb465146105ef578063b0a970be1461060f578063b3ab66b014610622578063b88d4fde14610635578063ba7a86b81461064857600080fd5b806370a0823114610527578063715018a6146105475780637cb647591461055c57806383a076be1461057c5780638da5cb5b1461059c578063940cd05b146105ba57600080fd5b806323b872dd116101fe5780634b74ea43116101b75780634b74ea4314610483578063518302271461049957806355f804b3146104b85780635c975abb146104d85780636352211e146104f25780636c0360eb1461051257600080fd5b806323b872dd146103fe5780632eb4a7ab1461041157806333bc1c5c146104275780633ccfd60b1461044857806342842e0e1461045057806344a0d68a1461046357600080fd5b8063095ea7b311610250578063095ea7b314610353578063121338431461036657806313faede614610386578063149835a0146103aa57806318160ddd146103ca57806319132349146103e857600080fd5b806301ffc9a71461028d57806302329a29146102c257806306fdde03146102e4578063081812fc14610306578063081c8c441461033e575b600080fd5b34801561029957600080fd5b506102ad6102a8366004611da0565b6107f2565b60405190151581526020015b60405180910390f35b3480156102ce57600080fd5b506102e26102dd366004611dd2565b610844565b005b3480156102f057600080fd5b506102f961085f565b6040516102b99190611e45565b34801561031257600080fd5b50610326610321366004611e58565b6108f1565b6040516001600160a01b0390911681526020016102b9565b34801561034a57600080fd5b506102f9610935565b6102e2610361366004611e88565b6109c3565b34801561037257600080fd5b506102e2610381366004611dd2565b610a63565b34801561039257600080fd5b5061039c600d5481565b6040519081526020016102b9565b3480156103b657600080fd5b506102e26103c5366004611e58565b610a87565b3480156103d657600080fd5b5061039c600154600054036000190190565b3480156103f457600080fd5b5061039c60115481565b6102e261040c366004611eb2565b610a94565b34801561041d57600080fd5b5061039c60135481565b34801561043357600080fd5b506012546102ad906301000000900460ff1681565b6102e2610c25565b6102e261045e366004611eb2565b610cbb565b34801561046f57600080fd5b506102e261047e366004611e58565b610cdb565b34801561048f57600080fd5b5061039c600e5481565b3480156104a557600080fd5b506012546102ad90610100900460ff1681565b3480156104c457600080fd5b506102e26104d3366004611f7a565b610ce8565b3480156104e457600080fd5b506012546102ad9060ff1681565b3480156104fe57600080fd5b5061032661050d366004611e58565b610d07565b34801561051e57600080fd5b506102f9610d12565b34801561053357600080fd5b5061039c610542366004611fc3565b610d1f565b34801561055357600080fd5b506102e2610d6e565b34801561056857600080fd5b506102e2610577366004611e58565b610d82565b34801561058857600080fd5b506102e2610597366004611fde565b610d8f565b3480156105a857600080fd5b506008546001600160a01b0316610326565b3480156105c657600080fd5b506102e26105d5366004611dd2565b610e5a565b3480156105e657600080fd5b506102f9610e7c565b3480156105fb57600080fd5b506102e261060a36600461200a565b610e8b565b6102e261061d366004612034565b610ef7565b6102e2610630366004611e58565b61124d565b6102e26106433660046120b3565b6114b4565b34801561065457600080fd5b506012546102ad9062010000900460ff1681565b34801561067457600080fd5b5061039c60105481565b34801561068a57600080fd5b506102f96114fe565b34801561069f57600080fd5b506102f96106ae366004611e58565b61150b565b3480156106bf57600080fd5b5061039c600f5481565b3480156106d557600080fd5b506102e26106e4366004611f7a565b61167b565b3480156106f557600080fd5b5061039c610704366004611fc3565b611696565b34801561071557600080fd5b506102e2610724366004611e58565b6116c1565b34801561073557600080fd5b506102ad61074436600461212f565b6001600160a01b03918216600090815260076020908152604080832093909416825291909152205460ff1690565b34801561077e57600080fd5b506102e261078d366004611f7a565b6116ce565b34801561079e57600080fd5b506102e26107ad366004611fc3565b6116e9565b3480156107be57600080fd5b506102e26107cd366004611dd2565b611762565b3480156107de57600080fd5b506102e26107ed366004611e58565b611788565b60006301ffc9a760e01b6001600160e01b03198316148061082357506380ac58cd60e01b6001600160e01b03198316145b8061083e5750635b5e139f60e01b6001600160e01b03198316145b92915050565b61084c611795565b6012805460ff1916911515919091179055565b60606002805461086e90612159565b80601f016020809104026020016040519081016040528092919081815260200182805461089a90612159565b80156108e75780601f106108bc576101008083540402835291602001916108e7565b820191906000526020600020905b8154815290600101906020018083116108ca57829003601f168201915b5050505050905090565b60006108fc826117ef565b610919576040516333d1c03960e21b815260040160405180910390fd5b506000908152600660205260409020546001600160a01b031690565b600c805461094290612159565b80601f016020809104026020016040519081016040528092919081815260200182805461096e90612159565b80156109bb5780601f10610990576101008083540402835291602001916109bb565b820191906000526020600020905b81548152906001019060200180831161099e57829003601f168201915b505050505081565b60006109ce82610d07565b9050336001600160a01b03821614610a07576109ea8133610744565b610a07576040516367d9dca160e11b815260040160405180910390fd5b60008281526006602052604080822080546001600160a01b0319166001600160a01b0387811691821790925591518593918516917f8c5be1e5ebec7d5bd14f71427d1e84f3dd0314c0f7b2291e5b200ac8c7c3b92591a4505050565b610a6b611795565b60128054911515620100000262ff000019909216919091179055565b610a8f611795565b600f55565b6000610a9f82611824565b9050836001600160a01b0316816001600160a01b031614610ad25760405162a1148160e81b815260040160405180910390fd5b60008281526006602052604090208054338082146001600160a01b03881690911417610b1f57610b028633610744565b610b1f57604051632ce44b5f60e11b815260040160405180910390fd5b6001600160a01b038516610b4657604051633a954ecd60e21b815260040160405180910390fd5b8015610b5157600082555b6001600160a01b038681166000908152600560205260408082208054600019019055918716808252919020805460010190554260a01b17600160e11b17600085815260046020526040902055600160e11b8316610bdc5760018401600081815260046020526040902054610bda576000548114610bda5760008181526004602052604090208490555b505b83856001600160a01b0316876001600160a01b03167fddf252ad1be2c89b69c2b068fc378daa952ba7f163c4a11628f55a4df523b3ef60405160405180910390a4505050505050565b610c2d611795565b60026009541415610c595760405162461bcd60e51b8152600401610c5090612194565b60405180910390fd5b6002600955604051600090339047908381818185875af1925050503d8060008114610ca0576040519150601f19603f3d011682016040523d82523d6000602084013e610ca5565b606091505b5050905080610cb357600080fd5b506001600955565b610cd6838383604051806020016040528060008152506114b4565b505050565b610ce3611795565b600d55565b610cf0611795565b8051610d0390600a906020840190611cf1565b5050565b600061083e82611824565b600a805461094290612159565b60006001600160a01b038216610d48576040516323d3ad8160e21b815260040160405180910390fd5b506001600160a01b031660009081526005602052604090205467ffffffffffffffff1690565b610d76611795565b610d80600061188d565b565b610d8a611795565b601355565b610d97611795565b60026009541415610dba5760405162461bcd60e51b8152600401610c5090612194565b600260095581610ddc5760405162461bcd60e51b8152600401610c50906121cb565b6000610def600154600054036000190190565b600f54909150610dff8483612218565b1115610e465760405162461bcd60e51b81526020600482015260166024820152751b585e08139195081b1a5b5a5d08195e18d95959195960521b6044820152606401610c50565b610e5082846118df565b5050600160095550565b610e62611795565b601280549115156101000261ff0019909216919091179055565b60606003805461086e90612159565b3360008181526007602090815260408083206001600160a01b03871680855290835292819020805460ff191686151590811790915590519081529192917f17307eab39ab6107e8899845ad3d59bd9653f200f220920489ca2b5937696c31910160405180910390a35050565b60026009541415610f1a5760405162461bcd60e51b8152600401610c5090612194565b600260095560125460ff1615610f6c5760405162461bcd60e51b81526020600482015260176024820152761bdbdc1cc818dbdb9d1c9858dd081a5cc81c185d5cd959604a1b6044820152606401610c50565b60125462010000900460ff16610fc45760405162461bcd60e51b815260206004820152601c60248201527f5465616d206d696e74204861736e2774207374617274656420796574000000006044820152606401610c50565b611039828280806020026020016040519081016040528093929190818152602001838360200280828437600092019190915250506013546040516bffffffffffffffffffffffff193360601b1660208201529092506034019050604051602081830303815290604052805190602001206118f9565b6110855760405162461bcd60e51b815260206004820152601860248201527f20596f7520617265206e6f7420696e20746865205465616d00000000000000006044820152606401610c50565b6000611098600154600054036000190190565b9050601154846110d16110a83390565b6001600160a01b03166000908152600560205260409081902054901c67ffffffffffffffff1690565b6110db9190612218565b11156111295760405162461bcd60e51b815260206004820152601b60248201527f4d6178204e4654205065722057616c6c657420657863656564656400000000006044820152606401610c50565b600084116111495760405162461bcd60e51b8152600401610c50906121cb565b600f546111568583612218565b11156111915760405162461bcd60e51b815260206004820152600a60248201526915d94814dbdb191bdd5d60b21b6044820152606401610c50565b6011548411156111e35760405162461bcd60e51b815260206004820152601860248201527f6d6178206d696e742070657220547820657863656564656400000000000000006044820152606401610c50565b83600e546111f19190612230565b3410156112385760405162461bcd60e51b81526020600482015260156024820152740e8cac2da40dad2dce840c6dee6e8e6406040cae8d605b1b6044820152606401610c50565b61124233856118df565b505060016009555050565b600260095414156112705760405162461bcd60e51b8152600401610c5090612194565b600260095560125460ff16156112c25760405162461bcd60e51b81526020600482015260176024820152761bdbdc1cc818dbdb9d1c9858dd081a5cc81c185d5cd959604a1b6044820152606401610c50565b6012546301000000900460ff1661131b5760405162461bcd60e51b815260206004820152601760248201527f53616c65204861736e27742073746172746564207965740000000000000000006044820152606401610c50565b600061132e600154600054036000190190565b9050600082116113505760405162461bcd60e51b8152600401610c50906121cb565b6010548211156113a25760405162461bcd60e51b815260206004820152601f60248201527f6d6178206d696e7420616d6f756e7420706572207478206578636565646564006044820152606401610c50565b600f546113af8383612218565b11156113ea5760405162461bcd60e51b815260206004820152600a60248201526915d94814dbdb191bdd5d60b21b6044820152606401610c50565b601054826113f7336110a8565b6114019190612218565b111561144f5760405162461bcd60e51b815260206004820152601c60248201527f204d6178204e4654205065722057616c6c6574206578636565646564000000006044820152606401610c50565b81600d5461145d9190612230565b3410156114a15760405162461bcd60e51b8152602060048201526012602482015271696e73756666696369656e742066756e647360701b6044820152606401610c50565b6114ab33836118df565b50506001600955565b6114bf848484610a94565b6001600160a01b0383163b156114f8576114db8484848461190f565b6114f8576040516368d2bf6b60e11b815260040160405180910390fd5b50505050565b600b805461094290612159565b6060611516826117ef565b61157b5760405162461bcd60e51b815260206004820152603060248201527f455243373231414d657461646174613a2055524920717565727920666f72206e60448201526f37b732bc34b9ba32b73a103a37b5b2b760811b6064820152608401610c50565b601254610100900460ff1661161c57600c805461159790612159565b80601f01602080910402602001604051908101604052809291908181526020018280546115c390612159565b80156116105780601f106115e557610100808354040283529160200191611610565b820191906000526020600020905b8154815290600101906020018083116115f357829003601f168201915b50505050509050919050565b6000611626611a07565b905060008151116116465760405180602001604052806000815250611674565b8061165084611a16565b600b6040516020016116649392919061224f565b6040516020818303038152906040525b9392505050565b611683611795565b8051610d0390600b906020840190611cf1565b6001600160a01b0381166000908152600560205260408082205467ffffffffffffffff911c1661083e565b6116c9611795565b601055565b6116d6611795565b8051610d0390600c906020840190611cf1565b6116f1611795565b6001600160a01b0381166117565760405162461bcd60e51b815260206004820152602660248201527f4f776e61626c653a206e6577206f776e657220697320746865207a65726f206160448201526564647265737360d01b6064820152608401610c50565b61175f8161188d565b50565b61176a611795565b6012805491151563010000000263ff00000019909216919091179055565b611790611795565b601155565b6008546001600160a01b03163314610d805760405162461bcd60e51b815260206004820181905260248201527f4f776e61626c653a2063616c6c6572206973206e6f7420746865206f776e65726044820152606401610c50565b600081600111158015611803575060005482105b801561083e575050600090815260046020526040902054600160e01b161590565b600081806001116118745760005481101561187457600081815260046020526040902054600160e01b8116611872575b80611674575060001901600081815260046020526040902054611854565b505b604051636f96cda160e11b815260040160405180910390fd5b600880546001600160a01b038381166001600160a01b0319831681179093556040519116919082907f8be0079c531659141344cd1fd0a4f28419497f9722a3daafe3b4186f6b6457e090600090a35050565b610d03828260405180602001604052806000815250611b14565b6000826119068584611b81565b14949350505050565b604051630a85bd0160e11b81526000906001600160a01b0385169063150b7a0290611944903390899088908890600401612313565b602060405180830381600087803b15801561195e57600080fd5b505af192505050801561198e575060408051601f3d908101601f1916820190925261198b91810190612350565b60015b6119e9573d8080156119bc576040519150601f19603f3d011682016040523d82523d6000602084013e6119c1565b606091505b5080516119e1576040516368d2bf6b60e11b815260040160405180910390fd5b805181602001fd5b6001600160e01b031916630a85bd0160e11b1490505b949350505050565b6060600a805461086e90612159565b606081611a3a5750506040805180820190915260018152600360fc1b602082015290565b8160005b8115611a645780611a4e8161236d565b9150611a5d9050600a8361239e565b9150611a3e565b60008167ffffffffffffffff811115611a7f57611a7f611eee565b6040519080825280601f01601f191660200182016040528015611aa9576020820181803683370190505b5090505b84156119ff57611abe6001836123b2565b9150611acb600a866123c9565b611ad6906030612218565b60f81b818381518110611aeb57611aeb6123dd565b60200101906001600160f81b031916908160001a905350611b0d600a8661239e565b9450611aad565b611b1e8383611bce565b6001600160a01b0383163b15610cd6576000548281035b611b48600086838060010194508661190f565b611b65576040516368d2bf6b60e11b815260040160405180910390fd5b818110611b35578160005414611b7a57600080fd5b5050505050565b600081815b8451811015611bc657611bb282868381518110611ba557611ba56123dd565b6020026020010151611cc5565b915080611bbe8161236d565b915050611b86565b509392505050565b60005481611bef5760405163b562e8dd60e01b815260040160405180910390fd5b6001600160a01b03831660008181526005602090815260408083208054680100000000000000018802019055848352600490915281206001851460e11b4260a01b178317905582840190839083907fddf252ad1be2c89b69c2b068fc378daa952ba7f163c4a11628f55a4df523b3ef8180a4600183015b818114611c9e57808360007fddf252ad1be2c89b69c2b068fc378daa952ba7f163c4a11628f55a4df523b3ef600080a4600101611c66565b5081611cbc57604051622e076360e81b815260040160405180910390fd5b60005550505050565b6000818310611ce1576000828152602084905260409020611674565b5060009182526020526040902090565b828054611cfd90612159565b90600052602060002090601f016020900481019282611d1f5760008555611d65565b82601f10611d3857805160ff1916838001178555611d65565b82800160010185558215611d65579182015b82811115611d65578251825591602001919060010190611d4a565b50611d71929150611d75565b5090565b5b80821115611d715760008155600101611d76565b6001600160e01b03198116811461175f57600080fd5b600060208284031215611db257600080fd5b813561167481611d8a565b80358015158114611dcd57600080fd5b919050565b600060208284031215611de457600080fd5b61167482611dbd565b60005b83811015611e08578181015183820152602001611df0565b838111156114f85750506000910152565b60008151808452611e31816020860160208601611ded565b601f01601f19169290920160200192915050565b6020815260006116746020830184611e19565b600060208284031215611e6a57600080fd5b5035919050565b80356001600160a01b0381168114611dcd57600080fd5b60008060408385031215611e9b57600080fd5b611ea483611e71565b946020939093013593505050565b600080600060608486031215611ec757600080fd5b611ed084611e71565b9250611ede60208501611e71565b9150604084013590509250925092565b634e487b7160e01b600052604160045260246000fd5b600067ffffffffffffffff80841115611f1f57611f1f611eee565b604051601f8501601f19908116603f01168101908282118183101715611f4757611f47611eee565b81604052809350858152868686011115611f6057600080fd5b858560208301376000602087830101525050509392505050565b600060208284031215611f8c57600080fd5b813567ffffffffffffffff811115611fa357600080fd5b8201601f81018413611fb457600080fd5b6119ff84823560208401611f04565b600060208284031215611fd557600080fd5b61167482611e71565b60008060408385031215611ff157600080fd5b8235915061200160208401611e71565b90509250929050565b6000806040838503121561201d57600080fd5b61202683611e71565b915061200160208401611dbd565b60008060006040848603121561204957600080fd5b83359250602084013567ffffffffffffffff8082111561206857600080fd5b818601915086601f83011261207c57600080fd5b81358181111561208b57600080fd5b8760208260051b85010111156120a057600080fd5b6020830194508093505050509250925092565b600080600080608085870312156120c957600080fd5b6120d285611e71565b93506120e060208601611e71565b925060408501359150606085013567ffffffffffffffff81111561210357600080fd5b8501601f8101871361211457600080fd5b61212387823560208401611f04565b91505092959194509250565b6000806040838503121561214257600080fd5b61214b83611e71565b915061200160208401611e71565b600181811c9082168061216d57607f821691505b6020821081141561218e57634e487b7160e01b600052602260045260246000fd5b50919050565b6020808252601f908201527f5265656e7472616e637947756172643a207265656e7472616e742063616c6c00604082015260600190565b6020808252601b908201527f6e65656420746f206d696e74206174206c656173742031204e46540000000000604082015260600190565b634e487b7160e01b600052601160045260246000fd5b6000821982111561222b5761222b612202565b500190565b600081600019048311821515161561224a5761224a612202565b500290565b6000845160206122628285838a01611ded565b8551918401916122758184848a01611ded565b8554920191600090600181811c908083168061229257607f831692505b8583108114156122b057634e487b7160e01b85526022600452602485fd5b8080156122c457600181146122d557612302565b60ff19851688528388019550612302565b60008b81526020902060005b858110156122fa5781548a8201529084019088016122e1565b505083880195505b50939b9a5050505050505050505050565b6001600160a01b038581168252841660208201526040810183905260806060820181905260009061234690830184611e19565b9695505050505050565b60006020828403121561236257600080fd5b815161167481611d8a565b600060001982141561238157612381612202565b5060010190565b634e487b7160e01b600052601260045260246000fd5b6000826123ad576123ad612388565b500490565b6000828210156123c4576123c4612202565b500390565b6000826123d8576123d8612388565b500690565b634e487b7160e01b600052603260045260246000fdfea264697066735822122052a84bc5607d468196e68885026f41f641e605bc6e8bca53de27ab0101b9af3864736f6c63430008090033",
  "linkReferences": {},
  "deployedLinkReferences": {}
}